S01800004D61696E5F4170706C69636174696F6E2E73726563B4
S11300000C942A000C9434000C9434000C943400A6
S11300100C9434000C9434000C9434000C9434008C
S11300200C9434000C9434000C9434000C9434007C
S11300300C9434000C9434000C9434000C9434006C
S11300400C9434000C9434000C9434000C9434005C
S11300500C94340011241FBECFE5D8E0DEBFCDBF21
S11300600E9436000C94C5010C9400000E94B50057
S11300700E94C7000E94D9000E94BB000E94D300C6
S11300800E94E5002FEF89E698E1215080409040DE
S1130090E1F700C000000E94C1000E94CD000E9450
S11300A0E5002FEF89E698E1215080409040E1F788
S11300B000C000000E94BB000E94CD000E94E50029
S11300C02FEF89E698E1215080409040E1F700C08D
S11300D000000E94C1000E94D3000E94DF002FEFA5
S11300E089E698E1215080409040E1F700C000008B
S11300F00E94BB000E94D3000E94DF002FEF89E61C
S113010098E1215080409040E1F700C000000E9437
S1130110C1000E94CD000E94DF002FEF89E698E124
S1130120215080409040E1F700C000000E94BB00D5
S11301300E94CD000E94DF002FEF89E698E1215054
S113014080409040E1F700C000000E94C1000E947E
S1130150D3000E94E5002FEF89E698E1215080400A
S11301609040E1F700C0000087CF41E062E082E008
S11301700E94EB00089541E062E082E00E94580191
S1130180089540E062E082E00E945801089541E051
S113019062E082E00E94EB00089541E062E082E0C8
S11301A00E945801089540E062E082E00E945801F4
S11301B0089541E062E082E00E94EB00089541E08E
S11301C062E082E00E945801089540E062E082E02B
S11301D00E9458010895813001F130F08230B1F16C
S11301E0833009F44CC0089541110CC02AB381E056
S11301F090E002C0880F991F6A95E2F780958223E8
S11302008ABB08952AB381E090E002C0880F991F49
S11302106A95E2F7822B8ABB089541110CC027B37B
S113022081E090E002C0880F991F6A95E2F78095FB
S1130230822387BB089527B381E090E002C0880F32
S1130240991F6A95E2F7822B87BB089541110CC070
S113025024B381E090E002C0880F991F6A95E2F709
S11302608095822384BB089524B381E090E002C08A
S1130270880F991F6A95E2F7822B84BB0895411178
S11302800CC021B381E090E002C0880F991F6A95E9
S1130290E2F78095822381BB089521B381E090E049
S11302A002C0880F991F6A95E2F7822B81BB0895DB
S11302B0813001F130F08230B1F1833009F44CC067
S11302C0089541110CC02BB381E090E002C0880F67
S11302D0991F6A95E2F7809582238BBB08952BB30F
S11302E081E090E002C0880F991F6A95E2F7822BA3
S11302F08BBB089541110CC028B381E090E002C08B
S1130300880F991F6A95E2F78095822388BB089528
S113031028B381E090E002C0880F991F6A95E2F744
S1130320822B88BB089541110CC025B381E090E075
S113033002C0880F991F6A95E2F78095822385BBD6
S1130340089525B381E090E002C0880F991F6A9553
S1130350E2F7822B85BB089541110CC022B381E0E2
S113036090E002C0880F991F6A95E2F78095822376
S113037082BB089522B381E090E002C0880F991FE8
S11103806A95E2F7822B82BB0895F894FFCFB2
S9030000FC
