S01800004D61696E5F4170706C69636174696F6E2E73726563B4
S11300000C942A000C9447000C9460000C94470054
S11300100C9447000C9447000C9447000C94470040
S11300200C9447000C9447000C9447000C94470030
S11300300C9447000C9447000C9447000C94470020
S11300400C9447000C9447000C9447000C94470010
S11300500C94470011241FBECFE5D8E0DEBFCDBF0E
S113006010E0A0E6B0E0EEE7F6E002C005900D92E5
S1130070A036B107D9F720E0A0E6B0E001C01D9298
S1130080A636B207E1F70E9449000C943D030C9494
S113009000000E94FF0063E081E00E948D02C1E441
S11300A00AC08C2F0E944E018FE39CE90197F1F75F
S11300B000C00000CF5FCB35A0F30E94F300EFCF68
S11300C01F920F920FB60F9211242F933F934F93C9
S11300D05F936F937F938F939F93AF93BF93CF93CC
S11300E0EF93FF930E94F300C1E60AC08C2F0E9495
S11300F04E018FE39CE90197F1F700C00000CF5F48
S1130100CB37A0F30E94F300FF91EF91CF91BF9101
S1130110AF919F918F917F916F915F914F913F919B
S11301202F910F900FBE0F901F90189541E063E040
S113013081E00E94AA018FE99FE00197F1F700C0D6
S1130140000040E063E081E00E94AA010895CF939B
S1130150C82F40E061E081E00E94AA0140E062E033
S113016081E00E94AA0140E063E081E00E94AA01CC
S11301702C2F207F47E064E080E00E9452020E941E
S1130180960080E1C89F9001112447E064E080E07C
S11301900E9452020E9496008FE891E00197F1F7C5
S11301A000C00000C63011F0C83111F41092610093
S11301B0C43011F0CC3119F481E080936100CF9107
S11301C0089582E00E94A7008FEA9DE10197F1F76C
S11301D000C000001092620010926300109264004C
S11301E010926500089581E00E94A7000E94E1003A
S11301F08FEA9DE10197F1F700C000000895809116
S11302006000811126C02EE043E061E081E00E949D
S1130210170220EF47E064E080E00E9417028FE5B8
S11302209AEE0197F1F700C0000083E30E94A70053
S113023082E30E94A70088E20E94A7008FE00E9448
S1130240A70086E00E94A7000E94F30081E080934B
S1130250600008958091620090916300A091640011
S1130260B0916500AC01BD014F7155276627772712
S1130270452B462B472B31F40E94F30080E80E9463
S1130280A70008958F709927AA27BB27892B8A2B4B
S11302908B2B19F480EC0E94A7000895CF93C82FEC
S11302A00E94FF000E942A0141E061E081E00E9477
S11302B0AA0140E062E081E00E94AA0140E063E01C
S11302C081E00E94AA012C2F207F47E064E080E0B7
S11302D00E9452020E94960080E1C89F900111245E
S11302E047E064E080E00E9452020E9496008FE89A
S11302F091E00197F1F700C000008091610088232C
S1130300A1F08091620090916300A0916400B0918B
S113031065000197A109B10980936200909363007D
S1130320A0936400B093650013C080916200909123
S11303306300A0916400B09165000196A11DB11DF8
S11303408093620090936300A0936400B09365006F
S1130350CF910895813001F130F08230B1F18330D2
S113036009F44CC0089541110CC02BB381E090E016
S113037002C0880F991F6A95E2F7809582238BBB90
S113038008952BB381E090E002C0880F991F6A950D
S1130390E2F7822B8BBB089541110CC028B381E096
S11303A090E002C0880F991F6A95E2F78095822336
S11303B088BB089528B381E090E002C0880F991F9C
S11303C06A95E2F7822B88BB089541110CC025B3CE
S11303D081E090E002C0880F991F6A95E2F780954A
S11303E0822385BB089525B381E090E002C0880F85
S11303F0991F6A95E2F7822B85BB089541110CC0C1
S113040022B381E090E002C0880F991F6A95E2F759
S11304108095822382BB089522B381E090E002C0DC
S1130420880F991F6A95E2F7822B82BB0895E42F07
S1130430F0E0E61BF109319641E050E002C0440FC0
S1130440551FEA95E2F74150510902C0440F551F68
S11304506A95E2F7813071F028F0823099F08330A8
S1130460C9F008958AB3942F909589234223482B89
S11304704ABB089587B3942F909589234223482B30
S113048047BB089584B3942F909589234223482B26
S113049044BB089581B3942F909589234223482B1C
S11304A041BB0895E42FF0E0E61BF109319641E0E9
S11304B050E002C0440F551FEA95E2F7415051093C
S11304C002C0440F551F6A95E2F7813071F028F09D
S11304D0823099F08330C9F008958BB3942F9095AE
S11304E089234223482B4BBB089588B3942F9095BE
S11304F089234223482B48BB089585B3942F9095B4
S113050089234223482B45BB089582B3942F9095A9
S113051089234223482B42BB0895613059F138F0B6
S1130520623009F44AC0633009F477C0089588231F
S113053019F0813081F0089581B38B7F81BBF894E9
S113054085B78E7F85BF85B78D7F85BF8BB7806468
S11305508BBF7894089581B3877F81BBF89485B766
S11305608B7F85BF85B7877F85BF8BB780688BBF3F
S113057078940895882319F0813081F0089581B327
S11305808B7F81BBF89485B7816085BF85B78D7FEC
S113059085BF8BB780648BBF7894089581B3877FC0
S11305A081BBF89485B7846085BF85B7877F85BF95
S11305B08BB780688BBF78940895813099F018F0D8
S11305C08230F9F0089581B38B7F81BBF89485B7AD
S11305D08E7F85BF85B7826085BF8BB780648BBFF4
S11305E07894089581B3877F81BBF89485B78B7F16
S11305F085BF85B7886085BF8BB780688BBF7894CB
S1130600089587B38B7F87BBF89484B78F7B84BFAF
S11306108BB780628BBF78940895813099F018F07D
S11306208230F9F0089581B38B7F81BBF89485B74C
S1130630816085BF85B7826085BF8BB780648BBFBF
S11306407894089581B3877F81BBF89485B78460DB
S113065085BF85B7886085BF8BB780688BBF78946A
S1130660089587B38B7F87BBF89484B7806484BF75
S11106708BB780628BBF78940895F894FFCF07
S9030000FC
