S01800004D61696E5F4170706C69636174696F6E2E73726563B4
S11300000C942A000C943C000C943C000C943C008E
S11300100C943C000C943C000C943C000C943C006C
S11300200C943C000C943C000C943C000C943C005C
S11300300C943C000C943C000C943C000C943C004C
S11300400C943C000C943C000C943C000C943C003C
S11300500C943C0011241FBECFE5D8E0DEBFCDBF19
S113006020E0A0E6B0E001C01D92A436B207E1F79B
S11300700E943E000C9436020C94000004E110E04F
S11300802AC00431110539F40E94FA000E941701B4
S11300900E942C0113C00530110539F40E94FA00A6
S11300A00E940F010E94340109C00115110531F4A9
S11300B00E94F2000E9417010E943401C0E0D0E0C7
S11300C004C0802F0E94B0002A96C53F81E0D80763
S11300D0C4F3015011091123A4F604E110E00DC08A
S11300E0802F0E94B0002A9602C0C0E0D0E0C53F35
S11300F081E0D807ACF3015011091123B4F7BECF46
S11301008091600081110BC06EE081E00E941602B4
S113011060EF80E00E94160281E080936000089501
S11301200E94800041E061E081E00E94A9010895FD
S11301300E94800040E061E081E00E94A9010895EE
S11301400E94800041E062E081E00E94A9010895DC
S11301500E94800040E062E081E00E94A9010895CD
S1130160CF93C82F0E9480009DECC99F912D11242C
S1130170969596959695292F220F822F880F880F92
S1130180820F6C2F681B6295607FC92FC295C07F58
S113019080E00E9426020E9490000E94A8008FE145
S11301A09EE40197F1F700C000006C2F80E00E94EC
S11301B026020E94A0000E9498008FE19EE401970D
S11301C0F1F700C00000CF91089580916100811182
S11301D008C041E062E082E00E943C0181E080933B
S11301E0610008950E94E50041E062E082E00E941F
S11301F0A90108950E94E50040E062E082E00E94C7
S1130200A901089580916200811108C041E067E06E
S113021082E00E943C0181E08093620008950E9484
S1130220020141E067E082E00E94A90108950E9472
S1130230020140E067E082E00E94A90108958091F4
S11302406300811108C041E063E083E00E943C0147
S113025081E08093630008950E941F0141E063E000
S113026083E00E94A90108950E941F0140E063E019
S113027083E00E94A9010895813001F130F08230B9
S1130280B1F1833009F44CC0089541110CC02AB374
S113029081E090E002C0880F991F6A95E2F780958B
S11302A082238ABB08952AB381E090E002C0880FBC
S11302B0991F6A95E2F7822B8ABB089541110CC0FD
S11302C027B381E090E002C0880F991F6A95E2F796
S11302D08095822387BB089527B381E090E002C014
S11302E0880F991F6A95E2F7822B87BB0895411105
S11302F00CC024B381E090E002C0880F991F6A9576
S1130300E2F78095822384BB089524B381E090E0D2
S113031002C0880F991F6A95E2F7822B84BB089567
S113032041110CC021B381E090E002C0880F991FF5
S11303306A95E2F78095822381BB089521B381E019
S113034090E002C0880F991F6A95E2F7822B81BB67
S11303500895813001F130F08230B1F1833009F435
S11303604CC0089541110CC02BB381E090E002C051
S1130370880F991F6A95E2F7809582238BBB0895B5
S11303802BB381E090E002C0880F991F6A95E2F7D1
S1130390822B8BBB089541110CC028B381E090E0FF
S11303A002C0880F991F6A95E2F78095822388BB63
S11303B0089528B381E090E002C0880F991F6A95E0
S11303C0E2F7822B88BB089541110CC025B381E06C
S11303D090E002C0880F991F6A95E2F78095822306
S11303E085BB089525B381E090E002C0880F991F72
S11303F06A95E2F7822B85BB089541110CC022B3A4
S113040081E090E002C0880F991F6A95E2F7809519
S1130410822382BB089522B381E090E002C0880F5A
S1130420991F6A95E2F7822B82BB0895813041F0CF
S113043028F0823039F0833039F008956ABB08958A
S113044067BB089564BB089561BB0895813041F092
S113045028F0823039F0833039F008956BBB089569
S113046068BB089565BB089562BB0895F894FFCFF7
S9030000FC
