S01800004D61696E5F4170706C69636174696F6E2E73726563B4
S11300000C946B000C9488000C9488000C94880069
S11300100C9488000C9488000C9488000C9488003C
S11300200C9488000C9488000C9488000C9488002C
S11300300C9488000C9488000C9488000C9488001C
S11300400C9488000C9488000C9488000C9488000C
S11300500C94880007634236B79BD8A71A396856B0
S113006018AEBAAB558C1D3CB7CC5763BD6DEDFDD6
S1130070753EF6177231BF000000803F0800000093
S1130080BE922449123EABAAAA2ABECDCCCC4C3E89
S113009000000080BEABAAAAAA3E00000000BF0078
S11300A00000803F0000000000084178D3BB438774
S11300B0D1133D190E3CC3BD4282AD2B3E68EC8288
S11300C076BED98FE1A93E4C80EFFFBE01C4FF7F0D
S11300D03F000000000011241FBECFE5D8E0DEBFC2
S11300E0CDBF10E0A0E6B0E0E0EEF0E102C0059084
S11300F00D92A837B107D9F720E0A8E7B0E001C016
S11301001D92AD37B207E1F70E948A000C946E0885
S11301100C9400000E940E0180E690E00E94AF0162
S113012042E063EC7FE087EE95E40E94CB0261E05D
S113013080E00E94E80287E690E00E94AF018CE133
S11301400E94C3008FE39CE90197F1F700C000000F
S113015088E10E94C3008FE39CE90197F1F700C096
S11301600000EDCF41E063E081E00E9424038FE9C9
S11301709FE00197F1F700C0000040E063E081E0F8
S11301800E9424030895CF93C82F40E061E081E0EA
S11301900E94240340E062E081E00E94240340E0E6
S11301A063E081E00E9424032C2F207F47E064E079
S11301B080E00E94CC030E94B20080E1C89F9001BD
S11301C0112447E064E080E00E94CC030E94B20066
S11301D08FE891E00197F1F700C00000CF910895F6
S11301E082E00E94C3008FEA9DE10197F1F700C00D
S11301F000001092790010927A0010927B00109205
S11302007C00089581E00E94C3000E94F0008FEA00
S11302109DE10197F1F700C00000089580917800F6
S1130220811126C02EE043E061E081E00E94910349
S113023020EF47E064E080E00E9491038FE59AEEAE
S11302400197F1F700C0000083E30E94C30082E33A
S11302500E94C30088E20E94C3008FE00E94C30092
S113026086E00E94C3000E94020181E0809378002E
S11302700895CF92DF92EF92FF92C0907900D090D0
S11302807A00E0907B00F0907C00C701B60121E287
S113029030E040E050E00E94E107672B682B692BB7
S11302A031F40E94020180E80E94C3000FC0C7011C
S11302B0B60121E130E040E050E00E94E107672B05
S11302C0682B692B19F480EC0E94C300FF90EF9017
S11302D0DF90CF900895CF93C82F0E940E010E9403
S11302E0390141E061E081E00E94240340E062E0E2
S11302F081E00E94240340E063E081E00E94240343
S11303002C2F207F47E064E080E00E94CC030E9411
S1130310B20080E1C89F9001112447E064E080E0CE
S11303200E94CC030E94B2008FE891E00197F1F79C
S113033000C000008091790090917A00A0917B0028
S1130340B0917C000196A11DB11D8093790090931A
S11303507A00A0937B00B0937C00CF9108950F9313
S11303601F93CF938C01C0E003C0CF5F0E946B0149
S1130370F801EC0FF11D80818111F7CFCF911F910E
S11303800F9108959C01615090E00CC0D901A90F10
S1130390B11D8C919F5FF901E60FF11D40814C93D3
S11303A061508083961790F308952F923F924F9255
S11303B05F926F927F928F929F92AF92BF92CF92F1
S11303C0DF92EF92FF920F931F93CF93DF9300D0AE
S11303D000D000D0CDB7DEB7422E532E842E952EFA
S11303E06E837D83282E392E3801EC8210E034C0D0
S11303F081E0810F8983F301E10FF11DFB83EA831F
S11304000F2EFAE0AF2EF02DB12CC12CD12CE12C03
S1130410F12C00E010E0242D352D482D592D6E814E
S11304207D81822D932D0E940308205DEA81FB814A
S11304302083242D352D482D592D6E817D81822DCB
S1130440932D0E940508422E532E842E952E6E83E2
S11304507D83282E392E1981242D352D482D592D93
S11304606E817D81822D932DA0E00E94620809F0A7
S1130470BFCF06C0F301E10FF11D80E380831F5F4E
S1130480FC811F17B8F3612FC3010E94C201F3015D
S1130490E10FF11D1082812F26960FB6F894DEBF6E
S11304A00FBECDBFDF91CF911F910F91FF90EF90C1
S11304B0DF90CF90BF90AF909F908F907F906F9080
S11304C05F904F903F902F9008954F925F926F925C
S11304D07F928F929F92AF92BF92CF92DF92EF92D0
S11304E0FF920F931F93CF93DF934B015C016A013B
S11304F0F22E0E94B0042B013C010E94DF049B01F8
S1130500AC01C501B4010E9407044B015C01D30195
S1130510C201E12C8601242D392F4A2F5B2F60E084
S113052070E080E090E00E94D501C82FD0E0F60191
S1130530EC0FFD1F8EE280836F2D70E080E090E071
S11305400E94DF049B01AC0160E070E080E291E472
S11305500E94EA059B01AC01C501B4010E947D051E
S11305608E010F5F1F4F0C0D1D1D0E947904EF2C8F
S11305700E94D501DF91CF911F910F91FF90EF90D1
S1130580DF90CF90BF90AF909F908F907F906F90AF
S11305905F904F900895CF93DF93CDB7DEB7A197C7
S11305A00FB6F894DEBF0FBECDBF242FAE014F5F50
S11305B05F4F0E946502CE0101960E94AF01A19691
S11305C00FB6F894DEBF0FBECDBFDF91CF91089573
S11305D0EF92FF921F93CF93DF9300D0CDB7DEB796
S11305E0182FE62E0E940E0180E8898380EC8A830E
S11305F0F12CE1E0F0E0EC0FFD1FEE0DFF1D80811A
S1130600810F0E94C300EE0CFF1CEE0CFF1CEE0CCD
S1130610FF1CEE0CFF1C812F90E001968E0D9F1D98
S1130620092E000CAA0BBB0B8093790090937A00DF
S1130630A0937B00B0937C000F900F90DF91CF913B
S11306401F91FF90EF900895813001F130F08230D6
S1130650B1F1833009F44CC0089541110CC02BB39F
S113066081E090E002C0880F991F6A95E2F78095B7
S113067082238BBB08952BB381E090E002C0880FE6
S1130680991F6A95E2F7822B8BBB089541110CC028
S113069028B381E090E002C0880F991F6A95E2F7C1
S11306A08095822388BB089528B381E090E002C03E
S11306B0880F991F6A95E2F7822B88BB0895411130
S11306C00CC025B381E090E002C0880F991F6A95A1
S11306D0E2F78095822385BB089525B381E090E0FD
S11306E002C0880F991F6A95E2F7822B85BB089593
S11306F041110CC022B381E090E002C0880F991F21
S11307006A95E2F78095822382BB089522B381E043
S113071090E002C0880F991F6A95E2F7822B82BB92
S11307200895E42FF0E0E61BF109319641E050E032
S113073002C0440F551FEA95E2F74150510902C027
S1130740440F551F6A95E2F7813071F028F082302A
S113075099F08330C9F008958AB3942F9095892332
S11307604223482B4ABB089587B3942F909589233D
S11307704223482B47BB089584B3942F9095892333
S11307804223482B44BB089581B3942F9095892329
S11307904223482B41BB0895E42FF0E0E61BF10906
S11307A0319641E050E002C0440F551FEA95E2F74C
S11307B04150510902C0440F551F6A95E2F7813038
S11307C071F028F0823099F08330C9F008958BB32A
S11307D0942F909589234223482B4BBB089588B3CB
S11307E0942F909589234223482B48BB089585B3C1
S11307F0942F909589234223482B45BB089582B3B7
S1130800942F909589234223482B42BB0895505836
S1130810BB27AA270E941F040C9443050E94350598
S113082038F00E943C0520F039F49F3F19F426F477
S11308300C9422050EF4E095E7FB0C941C05E92FBB
S11308400E94540558F3BA17620773078407950783
S113085020F079F4A6F50C9476050EF4E0950B2EB1
S1130860BA2FA02D0B01B90190010C01CA01A001FE
S11308701124FF27591B99F0593F50F4503E68F159
S11308801A16F040A22F232F342F4427585FF3CF9A
S1130890469537952795A795F0405395C9F77EF46B
S11308A01F16BA0B620B730B840BBAF09150A1F0B4
S11308B0FF0FBB1F661F771F881FC2F70EC0BA0F3A
S11308C0621F731F841F48F4879577956795B795C2
S11308D0F7959E3F08F0B0CF9395880F08F09927BD
S11308E0EE0F979587950895BEE304D008F490E839
S11308F00895BFE322273327A9010E945C0560F114
S11309009F5748F1B91740F1BFE3B91B9927B85075
S11309103AF4660F771F881F991FB395D2F316C058
S1130920B8504AF0232F342F452F562F672F782F96
S11309308827B850BAF7B85F49F0869577956795D8
S11309405795479537952795BA95B9F716F40E94A8
S1130950250588940895889460E070E0CB0108959B
S11309600E945C0588F09F5798F0B92F9927B751DA
S1130970B0F0E1F0660F771F881F991F1AF0BA953F
S1130980C9F714C0B13091F00E947605B1E0089522
S11309900C947605672F782F8827B85F39F0B93F14
S11309A0CCF3869577956795B395D9F73EF49095F2
S11309B08095709561957F4F8F4F9F4F0895E89470
S11309C009C097FB3EF490958095709561957F4F93
S11309D08F4F9F4F9923A9F0F92F96E9BB27939541
S11309E0F695879577956795B795F111F8CFFAF451
S11309F0BB0F11F460FF1BC06F5F7F4F8F4F9F4F82
S1130A0016C0882311F096E911C0772321F09EE8DF
S1130A10872F762F05C0662371F096E8862F70E045
S1130A2060E02AF09A95660F771F881FDAF7880F1F
S1130A309695879597F9089597F99F6780E870E0F0
S1130A4060E008959FEF80EC0895909580957095EF
S1130A50609550954095309521953F4F4F4F5F4F8E
S1130A606F4F7F4F8F4F9F4F089500240A9416169F
S1130A70170618060906089500240A941216130688
S1130A80140605060895092E0394000C11F4882316
S1130A9052F0BB0F40F4BF2B11F460FF04C06F5F32
S1130AA07F4F8F4F9F4F089557FD9058440F551F08
S1130AB059F05F3F71F04795880F97FB991F61F0DC
S1130AC09F3F79F087950895121613061406551F53
S1130AD0F2CF4695F1DF08C0161617061806991FBF
S1130AE0F1CF86957105610508940895E894BB27B4
S1130AF066277727CB0197F908950E9490050C94F7
S1130B0043050E94350538F00E943C0520F09523EA
S1130B1011F00C941C050C94220511240C947705F7
S1130B200E94540570F3959FC1F3950F50E0551F33
S1130B30629FF001729FBB27F00DB11D639FAA272E
S1130B40F00DB11DAA1F649F6627B00DA11D661F7D
S1130B50829F2227B00DA11D621F739FB00DA11D9E
S1130B60621F839FA00D611D221F749F3327A00D58
S1130B70611D231F849F600D211D822F762F6A2FF4
S1130B8011249F5750409AF0F1F088234AF0EE0F59
S1130B90FF1FBB1F661F771F881F91505040A9F786
S1130BA09E3F510580F00C941C050C9477055F3F23
S1130BB0E4F3983ED4F3869577956795B795F795C2
S1130BC0E7959F5FC1F7FE2B880F911D969587953A
S1130BD097F90895FA01EE0FFF1F309621053105AC
S1130BE0A1F16115710561F48038BFE39B0749F1F8
S1130BF068949038810561F08038BFEF9B0741F01D
S1130C0099234AF5FF3FE1053105210519F1E894DF
S1130C100894E795D901AA2329F4AB2FBE2FF85FD6
S1130C20D0F310C0FF5F70F4A695E0F7F73950F0E9
S1130C3019F0FF3A38F49F779F930DD00F9007FC7B
S1130C409058089546F00C94220560E070E080E826
S1130C509FE308954FE79F775F934F933F932F93BD
S1130C600E94E5062F913F914F915F910E947D056F
S1130C700C94420629F416F00C941C050C94760589
S1130C800C9422050E945C05A8F39638A0F707F897
S1130C900F92E8942BE33AEA48EB5FE70E9493054E
S1130CA00F920F920F924DB75EB70F920E942D07CD
S1130CB0E4E5F0E00E9474064F915F91EF91FF919B
S1130CC0E595EE1FFF1F49F0FE57E0684427EE0F3D
S1130CD0441FFA95E1F74195550B0E94A7060F9022
S1130CE007FE0C949B060895DF93CF931F930F93F5
S1130CF0FF92EF92DF927B018C01689406C0DA2E9A
S1130D00EF010E949005FE01E894A591259135918B
S1130D1045915591A6F3EF010E941F04FE0197012E
S1130D20A801DA9469F7DF90EF90FF900F911F917B
S1130D30CF91DF9108959B01AC0160E070E080E801
S1130D409FE30C9461070C941C050C94D3070E9438
S1130D505C05D8F39923C9F3940F511DA3F3915063
S1130D60504094F059F0882332F0660F771F881FA3
S1130D7091505040C1F79E3F51052CF7880F911DAB
S1130D809695879597F908955F3FACF0983E9CF04F
S1130D90BB27869577956795B79508F4B1609395C9
S1130DA0C1F7BB0F58F711F460FFE8CF6F5F7F4FB7
S1130DB08F4F9F4FE3CF0C94770516F00C94D30715
S1130DC00C94220568940C941C050E945C05A8F3FD
S1130DD09923C1F3AEF3DF93CF931F930F93FF9245
S1130DE0C92FDD2788232AF02197660F771F881FD4
S1130DF0DAF720E030E040E85FEB9FE3883920F049
S1130E00803E38F021968F770E940804ECE7F0E0EA
S1130E1004C00E940804E9EAF0E00E9474068B0111
S1130E20BE01EC01FB2E6F5771097595771F880B76
S1130E30990B0E94E10428E132E741E35FE30E9459
S1130E409005AF2D9801AE01FF900F911F91CF91A6
S1130E50DF910E941F040C944305FA01DC01AA0FE0
S1130E60BB1F9B01AC01BF5728F42227332744271B
S1130E70507820C0B75190F4AB2F00244695379595
S1130E802795011CA395D2F3002071F0220F331F84
S1130E90441FB395DAF30ED00C9407046130710546
S1130EA0A0E88A07B94630F49B01AC01662777278E
S1130EB088279078309621F02083318342835383AE
S1130EC008950E9475070C9443050E943C0558F050
S1130ED00E94350540F029F45F3F29F00C941C056D
S1130EE051110C9477050C9422050E94540568F363
S1130EF09923B1F3552391F3951B550BBB27AA27CF
S1130F0062177307840738F09F5F5F4F220F331F08
S1130F10441FAA1FA9F335D00E2E3AF0E0E832D0D0
S1130F2091505040E695001CCAF72BD0FE2F29D0D3
S1130F30660F771F881FBB1F261737074807AB07A5
S1130F40B0E809F0BB0B802DBF01FF2793585F4F1A
S1130F503AF09E3F510578F00C941C050C947705EB
S1130F605F3FE4F3983ED4F3869577956795B795FC
S1130F70F7959F5FC9F7880F911D9695879597F907
S1130F800895E1E0660F771F881FBB1F6217730780
S1130F908407BA0720F0621B730B840BBA0BEE1F95
S1130FA088F7E09508959F3F31F0915020F487959C
S1130FB077956795B795880F911D9695879597F9BD
S1130FC00895A1E21A2EAA1BBB1BFD010DC0AA1F86
S1130FD0BB1FEE1FFF1FA217B307E407F50720F09E
S1130FE0A21BB30BE40BF50B661F771F881F991F19
S1130FF01A9469F760957095809590959B01AC0162
S1131000BD01CF010895689401C0E8948F929F9226
S1131010CF93DF930E941108DF91CF919F908F901F
S1131020089588249924F401E401B0E49F93AA2745
S11310309A158B049C04ED05FE05CF05D007A10786
S113104098F4AD2FDC2FCF2FFE2FE92D982C892E6D
S1131050982F872F762F652F542F432F322F222737
S1131060B85031F7BF9127C01B2EBF91BB27220F69
S1131070331F441F551F661F771F881F991F881C25
S1131080991CEE1FFF1FCC1FDD1FAA1FBB1F8A1454
S11310909B04EC05FD05CE05DF05A007B10748F06C
S11310A08A189B08EC09FD09CE09DF09A00BB10BD6
S11310B021601A94E1F62EF49401AF01BE01CD0132
S11310C0000C08950024A7FD00942A17300540055C
S11310D0500560057005800590050895F894FFCFCC
S11310E04166746572200074726965732C492064CA
S10B10F0696420697421000009
S9030000FC
