S01800004D61696E5F4170706C69636174696F6E2E73726563B4
S11300000C942A000C9447000C9447000C9447006D
S11300100C9447000C9447000C9447000C94470040
S11300200C9447000C9447000C9447000C94470030
S11300300C9447000C9447000C9447000C94470020
S11300400C9447000C9447000C9447000C94470010
S11300500C94470011241FBECFE5D8E0DEBFCDBF0E
S113006010E0A0E6B0E0E2E7F5E002C005900D92F2
S1130070A036B107D9F720E0A0E6B0E001C01D9298
S1130080A236B207E1F70E9449000C94B7020C941F
S1130090000080E00E949100C0E0D0E00BC06C2F13
S11300A080E00E94D7008FE99FE00197F1F700C03C
S11300B000002196C536D10594F3C4E6D0E00BC008
S11300C06C2F80E00E94D7008FE99FE00197F1F741
S11300D000C000002197DD239CF7C0E0D0E00BC0F6
S11300E06C2F80E00E94D7008FE99FE00197F1F721
S11300F000C000002197CC399FEFD9078CF7CCE9D9
S1130100DFEF0BC06C2F80E00E94D7008FE99FE0E7
S11301100197F1F700C0000021961C161D0694F704
S1130120BBCF882319F08130E1F0089580916100FC
S1130130811131C041E060E082E00E942B0140E087
S113014060E082E00E9498010E94050283E00E9420
S11301500F0260E081E00E94630281E0809361000D
S1130160089580916000811116C041E060E082E052
S11301700E942B0140E060E082E00E9498010E940E
S1130180050283E00E940F0260E081E00E946302A6
S113019081E0809360000895882319F0813021F074
S11301A008950E94590208950E9459020895CF9318
S11301B0C62F882319F0813039F14BC080E00E94AA
S11301C091001C1664F440E060E082E00E94980113
S11301D083E00E940F026C2F81E00E946302CC2313
S11301E06CF441E060E082E00E94980183E00E94A8
S11301F00F026C2F619581E00E946302C11129C036
S113020080E00E94CC0025C081E00E9491001C1671
S11302106CF440E061E082E00E94980183E00E9477
S11302200F026C2F81E00E94630213C0CC2374F48C
S113023041E061E082E00E94980183E00E940F02A5
S11302406C2F619581E00E94630203C081E00E94EB
S1130250CC00CF910895813001F130F08230B1F1BA
S1130260833009F44CC0089541110CC02AB381E0D5
S113027090E002C0880F991F6A95E2F78095822367
S11302808ABB08952AB381E090E002C0880F991FC9
S11302906A95E2F7822B8ABB089541110CC027B3FB
S11302A081E090E002C0880F991F6A95E2F780957B
S11302B0822387BB089527B381E090E002C0880FB2
S11302C0991F6A95E2F7822B87BB089541110CC0F0
S11302D024B381E090E002C0880F991F6A95E2F789
S11302E08095822384BB089524B381E090E002C00A
S11302F0880F991F6A95E2F7822B84BB08954111F8
S11303000CC021B381E090E002C0880F991F6A9568
S1130310E2F78095822381BB089521B381E090E0C8
S113032002C0880F991F6A95E2F7822B81BB08955A
S1130330813001F130F08230B1F1833009F44CC0E6
S1130340089541110CC02BB381E090E002C0880FE6
S1130350991F6A95E2F7809582238BBB08952BB38E
S113036081E090E002C0880F991F6A95E2F7822B22
S11303708BBB089541110CC028B381E090E002C00A
S1130380880F991F6A95E2F78095822388BB0895A8
S113039028B381E090E002C0880F991F6A95E2F7C4
S11303A0822B88BB089541110CC025B381E090E0F5
S11303B002C0880F991F6A95E2F78095822385BB56
S11303C0089525B381E090E002C0880F991F6A95D3
S11303D0E2F7822B85BB089541110CC022B381E062
S11303E090E002C0880F991F6A95E2F780958223F6
S11303F082BB089522B381E090E002C0880F991F68
S11304006A95E2F7822B82BB089587B3886087BB25
S113041083B7806483BF83B7886083BF08958230C5
S113042001F128F4882349F0813089F0089584305B
S113043061F108F1853099F1089583B78E7F83BF08
S113044083B78D7F83BF83B78B7F83BF089583B7C3
S1130450816083BF83B78D7F83BF83B78B7F83BF67
S1130460089583B78E7F83BF83B7826083BF83B7CA
S11304708B7F83BF089583B7816083BF83B7826016
S113048083BF83B78B7F83BF089583B78E7F83BF7A
S113049083B78D7F83BF83B7846083BF089583B799
S11304A0816083BF83B78D7F83BF83B7846083BF3D
S11304B0089583B78E7F83BF83B78D7F83BF83B750
S11304C08B7F83BF0895813059F018F08230B9F0E2
S11304D0089583B78F7E83BF83B78F7D83BF0895CD
S11304E083B78F7E83BF83B7806283BF962F80E0FC
S11304F064E670E00E948F0261506CBF089583B778
S1130500806183BF83B7806283BF962F80E064E6F7
S113051070E00E948F0281E0861B8CBF089597FBD8
S1130520072E16F4009407D077FD09D00E94A30289
S113053007FC05D03EF4909581959F4F08957095E2
S113054061957F4F0895AA1BBB1B51E107C0AA1FE9
S1130550BB1FA617B70710F0A61BB70B881F991F60
S11305605A95A9F780959095BC01CD010895F8940A
S1050570FFCFB7
S9030000FC
