:100000000C9432000C944F000C944F000C944F0051
:100010000C944F000C944F000C944F000C944F0024
:100020000C944F000C944F000C944F000C944F0014
:100030000C944F000C944F000C944F000C944F0004
:100040000C944F000C944F000C944F000C944F00F4
:100050000C944F00170121012A0133013C01450195
:100060004E01570111241FBECFE5D8E0DEBFCDBF42
:1000700010E0A0E6B0E0E8E9F4E002C005900D92DF
:10008000A036B107D9F720E0A0E6B0E001C01D928C
:10009000A636B207E1F70E9451000C944A020C9474
:1000A00000000E94C10067E080E00E94EC00FFCFEA
:1000B00041E063E081E00E9461018FE99FE00197E8
:1000C000F1F700C0000040E063E081E00E946101C0
:1000D0000895CF93C82F40E061E081E00E94610164
:1000E00040E062E081E00E94610140E063E081E085
:1000F0000E9461012C2F207F47E064E080E00E9495
:1001000009020E94580080E1C89F9001112447E035
:1001100064E080E00E9409020E9458008FE891E0AC
:100120000197F1F700C00000C63011F0C83111F49A
:1001300010926100C43011F0CC3119F481E0809349
:100140006100CF91089582E00E9469008FEA9DE1ED
:100150000197F1F700C00000109262001092630056
:100160001092640010926500089581E00E94690079
:100170000E94A3008FEA9DE10197F1F700C0000003
:10018000089580916000811126C02EE043E061E077
:1001900081E00E94CE0120EF47E064E080E00E9411
:1001A000CE018FE59AEE0197F1F700C0000083E3DE
:1001B0000E94690082E30E94690088E20E9469004F
:1001C0008FE00E94690086E00E9469000E94B500ED
:1001D00081E080936000089596B1906896B997B1D8
:1001E0009F7D97B9813059F018F0823079F014C0B2
:1001F00087B18F7B87B987B18F7787B90DC087B1FA
:10020000806487B987B18F7787B906C087B180646A
:1002100087B987B1806887B9862F90E088309105CB
:1002200008F04EC0FC01E65DFF4F0C94440286B11D
:100230008E7F86B986B18D7F86B986B18B7F86B970
:10024000089586B1816086B986B18D7F86B986B101
:100250008B7F86B986B18E7F86B986B1826086B97A
:1002600086B18B7F86B986B1816086B986B182609E
:1002700086B986B18B7F86B986B18E7F86B986B105
:100280008D7F86B986B1846086B986B1816086B972
:1002900086B18D7F86B986B1846086B986B18E7F3E
:1002A00086B986B1826086B986B1846086B986B126
:1002B000816086B986B1826086B986B1846086B96C
:1002C0000895813001F130F08230B1F1833009F4CA
:1002D0004CC0089541110CC02BB381E090E002C0E6
:1002E000880F991F6A95E2F7809582238BBB08954A
:1002F0002BB381E090E002C0880F991F6A95E2F766
:10030000822B8BBB089541110CC028B381E090E093
:1003100002C0880F991F6A95E2F78095822388BBF7
:10032000089528B381E090E002C0880F991F6A9574
:10033000E2F7822B88BB089541110CC025B381E000
:1003400090E002C0880F991F6A95E2F7809582239A
:1003500085BB089525B381E090E002C0880F991F06
:100360006A95E2F7822B85BB089541110CC022B338
:1003700081E090E002C0880F991F6A95E2F78095AE
:10038000822382BB089522B381E090E002C0880FEF
:10039000991F6A95E2F7822B82BB0895E42FF0E063
:1003A000E61BF109319641E050E002C0440F551FB1
:1003B000EA95E2F74150510902C0440F551F6A9572
:1003C000E2F7813071F028F0823099F08330C9F083
:1003D00008958AB3942F909589234223482B4ABBD2
:1003E000089587B3942F909589234223482B47BBC8
:1003F000089584B3942F909589234223482B44BBBE
:10040000089581B3942F909589234223482B41BBB3
:100410000895E42FF0E0E61BF109319641E050E049
:1004200002C0440F551FEA95E2F74150510902C03E
:10043000440F551F6A95E2F7813071F028F0823041
:1004400099F08330C9F008958BB3942F9095892348
:100450004223482B4BBB089588B3942F9095892352
:100460004223482B48BB089585B3942F9095892348
:100470004223482B45BB089582B3942F909589233E
:100480004223482B42BB0895EE0FFF1F0590F491C5
:08049000E02D0994F894FFCF60
:00000001FF
